{
  "contractName": "Marketplace",
  "abi": [
    {
      "inputs": [],
      "payable": false,
      "stateMutability": "nonpayable",
      "type": "constructor"
    },
    {
      "anonymous": false,
      "inputs": [
        {
          "indexed": false,
          "internalType": "uint256",
          "name": "id",
          "type": "uint256"
        },
        {
          "indexed": false,
          "internalType": "string",
          "name": "name",
          "type": "string"
        },
        {
          "indexed": false,
          "internalType": "uint256",
          "name": "price",
          "type": "uint256"
        },
        {
          "indexed": false,
          "internalType": "address payable",
          "name": "owner",
          "type": "address"
        },
        {
          "indexed": false,
          "internalType": "bool",
          "name": "purchased",
          "type": "bool"
        },
        {
          "indexed": false,
          "internalType": "bool",
          "name": "removed",
          "type": "bool"
        }
      ],
      "name": "ProductCreated",
      "type": "event"
    },
    {
      "anonymous": false,
      "inputs": [
        {
          "indexed": false,
          "internalType": "uint256",
          "name": "id",
          "type": "uint256"
        },
        {
          "indexed": false,
          "internalType": "string",
          "name": "name",
          "type": "string"
        },
        {
          "indexed": false,
          "internalType": "uint256",
          "name": "price",
          "type": "uint256"
        },
        {
          "indexed": false,
          "internalType": "address payable",
          "name": "owner",
          "type": "address"
        },
        {
          "indexed": false,
          "internalType": "bool",
          "name": "purchased",
          "type": "bool"
        },
        {
          "indexed": false,
          "internalType": "bool",
          "name": "removed",
          "type": "bool"
        }
      ],
      "name": "ProductPurchased",
      "type": "event"
    },
    {
      "anonymous": false,
      "inputs": [
        {
          "indexed": false,
          "internalType": "uint256",
          "name": "id",
          "type": "uint256"
        },
        {
          "indexed": false,
          "internalType": "string",
          "name": "name",
          "type": "string"
        },
        {
          "indexed": false,
          "internalType": "uint256",
          "name": "price",
          "type": "uint256"
        },
        {
          "indexed": false,
          "internalType": "address payable",
          "name": "owner",
          "type": "address"
        },
        {
          "indexed": false,
          "internalType": "bool",
          "name": "purchased",
          "type": "bool"
        },
        {
          "indexed": false,
          "internalType": "bool",
          "name": "removed",
          "type": "bool"
        }
      ],
      "name": "ProductRemoved",
      "type": "event"
    },
    {
      "constant": true,
      "inputs": [],
      "name": "name",
      "outputs": [
        {
          "internalType": "string",
          "name": "",
          "type": "string"
        }
      ],
      "payable": false,
      "stateMutability": "view",
      "type": "function"
    },
    {
      "constant": true,
      "inputs": [],
      "name": "productCount",
      "outputs": [
        {
          "internalType": "uint256",
          "name": "",
          "type": "uint256"
        }
      ],
      "payable": false,
      "stateMutability": "view",
      "type": "function"
    },
    {
      "constant": true,
      "inputs": [
        {
          "internalType": "uint256",
          "name": "",
          "type": "uint256"
        }
      ],
      "name": "products",
      "outputs": [
        {
          "internalType": "uint256",
          "name": "id",
          "type": "uint256"
        },
        {
          "internalType": "string",
          "name": "name",
          "type": "string"
        },
        {
          "internalType": "uint256",
          "name": "price",
          "type": "uint256"
        },
        {
          "internalType": "address payable",
          "name": "owner",
          "type": "address"
        },
        {
          "internalType": "bool",
          "name": "purchased",
          "type": "bool"
        },
        {
          "internalType": "bool",
          "name": "removed",
          "type": "bool"
        }
      ],
      "payable": false,
      "stateMutability": "view",
      "type": "function"
    },
    {
      "constant": false,
      "inputs": [
        {
          "internalType": "string",
          "name": "_name",
          "type": "string"
        },
        {
          "internalType": "uint256",
          "name": "_price",
          "type": "uint256"
        }
      ],
      "name": "createProduct",
      "outputs": [],
      "payable": false,
      "stateMutability": "nonpayable",
      "type": "function"
    },
    {
      "constant": false,
      "inputs": [
        {
          "internalType": "uint256",
          "name": "_id",
          "type": "uint256"
        }
      ],
      "name": "purchaseProduct",
      "outputs": [],
      "payable": true,
      "stateMutability": "payable",
      "type": "function"
    },
    {
      "constant": false,
      "inputs": [
        {
          "internalType": "uint256",
          "name": "_id",
          "type": "uint256"
        }
      ],
      "name": "removeProduct",
      "outputs": [],
      "payable": true,
      "stateMutability": "payable",
      "type": "function"
    }
  ],
  "bytecode": "0x6080604052600060015534801561001557600080fd5b506040518060400160405280601b81526020017f4461707020556e6976657273697479204d61726b6574706c616365000000000081525060009080519060200190610061929190610067565b5061010c565b828054600181600116156101000203166002900490600052602060002090601f016020900481019282601f106100a857805160ff19168380011785556100d6565b828001600101855582156100d6579182015b828111156100d55782518255916020019190600101906100ba565b5b5090506100e391906100e7565b5090565b61010991905b808211156101055760008160009055506001016100ed565b5090565b90565b611092806200011c6000396000f3fe6080604052600436106100555760003560e01c806306fdde031461005a57806338e76a03146100ea5780635ee95cae146101185780637acc0b2014610146578063e0f6ef8714610251578063e9300c6c1461027c575b600080fd5b34801561006657600080fd5b5061006f61034e565b6040518080602001828103825283818151815260200191508051906020019080838360005b838110156100af578082015181840152602081019050610094565b50505050905090810190601f1680156100dc5780820380516001836020036101000a031916815260200191505b509250505060405180910390f35b6101166004803603602081101561010057600080fd5b81019080803590602001909291905050506103ec565b005b6101446004803603602081101561012e57600080fd5b8101908080359060200190929190505050610845565b005b34801561015257600080fd5b5061017f6004803603602081101561016957600080fd5b8101908080359060200190929190505050610c0d565b60405180878152602001806020018681526020018573ffffffffffffffffffffffffffffffffffffffff1673ffffffffffffffffffffffffffffffffffffffff1681526020018415151515815260200183151515158152602001828103825287818151815260200191508051906020019080838360005b838110156102115780820151818401526020810190506101f6565b50505050905090810190601f16801561023e5780820380516001836020036101000a031916815260200191505b5097505050505050505060405180910390f35b34801561025d57600080fd5b50610266610d1b565b6040518082815260200191505060405180910390f35b34801561028857600080fd5b5061034c6004803603604081101561029f57600080fd5b81019080803590602001906401000000008111156102bc57600080fd5b8201836020820111156102ce57600080fd5b803590602001918460018302840111640100000000831117156102f057600080fd5b91908080601f016020809104026020016040519081016040528093929190818152602001838380828437600081840152601f19601f82011690508083019250505050505050919291929080359060200190929190505050610d21565b005b60008054600181600116156101000203166002900480601f0160208091040260200160405190810160405280929190818152602001828054600181600116156101000203166002900480156103e45780601f106103b9576101008083540402835291602001916103e4565b820191906000526020600020905b8154815290600101906020018083116103c757829003601f168201915b505050505081565b6103f4610f68565b600260008381526020019081526020016000206040518060c001604052908160008201548152602001600182018054600181600116156101000203166002900480601f0160208091040260200160405190810160405280929190818152602001828054600181600116156101000203166002900480156104b55780601f1061048a576101008083540402835291602001916104b5565b820191906000526020600020905b81548152906001019060200180831161049857829003601f168201915b50505050508152602001600282015481526020016003820160009054906101000a900473ffffffffffffffffffffffffffffffffffffffff1673ffffffffffffffffffffffffffffffffffffffff1673ffffffffffffffffffffffffffffffffffffffff1681526020016003820160149054906101000a900460ff161515151581526020016003820160159054906101000a900460ff1615151515815250509050600081606001519050600082600001511180156105795750600154826000015111155b61058257600080fd5b816040015134101561059357600080fd5b8160800151156105a257600080fd5b3373ffffffffffffffffffffffffffffffffffffffff168173ffffffffffffffffffffffffffffffffffffffff1614156105db57600080fd5b33826060019073ffffffffffffffffffffffffffffffffffffffff16908173ffffffffffffffffffffffffffffffffffffffff16815250506001826080019015159081151581525050816002600085815260200190815260200160002060008201518160000155602082015181600101908051906020019061065e929190610fb8565b506040820151816002015560608201518160030160006101000a81548173ffffffffffffffffffffffffffffffffffffffff021916908373ffffffffffffffffffffffffffffffffffffffff16021790555060808201518160030160146101000a81548160ff02191690831515021790555060a08201518160030160156101000a81548160ff0219169083151502179055509050508073ffffffffffffffffffffffffffffffffffffffff166108fc349081150290604051600060405180830381858888f19350505050158015610739573d6000803e3d6000fd5b507f30fe1766f4be498b4b6e89a857a816b991b86ede45bd1a0f89a34cebccbd796d826000015183602001518460400151336001600060405180878152602001806020018681526020018573ffffffffffffffffffffffffffffffffffffffff1673ffffffffffffffffffffffffffffffffffffffff1681526020018415151515815260200183151515158152602001828103825287818151815260200191508051906020019080838360005b838110156108015780820151818401526020810190506107e6565b50505050905090810190601f16801561082e5780820380516001836020036101000a031916815260200191505b5097505050505050505060405180910390a1505050565b61084d610f68565b600260008381526020019081526020016000206040518060c001604052908160008201548152602001600182018054600181600116156101000203166002900480601f01602080910402602001604051908101604052809291908181526020018280546001816001161561010002031660029004801561090e5780601f106108e35761010080835404028352916020019161090e565b820191906000526020600020905b8154815290600101906020018083116108f157829003601f168201915b50505050508152602001600282015481526020016003820160009054906101000a900473ffffffffffffffffffffffffffffffffffffffff1673ffffffffffffffffffffffffffffffffffffffff1673ffffffffffffffffffffffffffffffffffffffff1681526020016003820160149054906101000a900460ff161515151581526020016003820160159054906101000a900460ff1615151515815250509050600081606001519050600082600001511180156109d25750600154826000015111155b6109db57600080fd5b8160a00151156109ea57600080fd5b3373ffffffffffffffffffffffffffffffffffffffff168173ffffffffffffffffffffffffffffffffffffffff1614610a2257600080fd5b60018260a00190151590811515815250508160026000858152602001908152602001600020600082015181600001556020820151816001019080519060200190610a6d929190610fb8565b506040820151816002015560608201518160030160006101000a81548173ffffffffffffffffffffffffffffffffffffffff021916908373ffffffffffffffffffffffffffffffffffffffff16021790555060808201518160030160146101000a81548160ff02191690831515021790555060a08201518160030160156101000a81548160ff0219169083151502179055509050507fff4132885736e29312d4cd67fecf55339a3ed13f2c038876c1a007ee89f687cf826000015183602001518460400151336000600160405180878152602001806020018681526020018573ffffffffffffffffffffffffffffffffffffffff1673ffffffffffffffffffffffffffffffffffffffff1681526020018415151515815260200183151515158152602001828103825287818151815260200191508051906020019080838360005b83811015610bc9578082015181840152602081019050610bae565b50505050905090810190601f168015610bf65780820380516001836020036101000a031916815260200191505b5097505050505050505060405180910390a1505050565b6002602052806000526040600020600091509050806000015490806001018054600181600116156101000203166002900480601f016020809104026020016040519081016040528092919081815260200182805460018160011615610100020316600290048015610cbf5780601f10610c9457610100808354040283529160200191610cbf565b820191906000526020600020905b815481529060010190602001808311610ca257829003601f168201915b5050505050908060020154908060030160009054906101000a900473ffffffffffffffffffffffffffffffffffffffff16908060030160149054906101000a900460ff16908060030160159054906101000a900460ff16905086565b60015481565b6000825111610d2f57600080fd5b60008111610d3c57600080fd5b6001600081548092919060010191905055506040518060c0016040528060015481526020018381526020018281526020013373ffffffffffffffffffffffffffffffffffffffff16815260200160001515815260200160001515815250600260006001548152602001908152602001600020600082015181600001556020820151816001019080519060200190610dd4929190610fb8565b506040820151816002015560608201518160030160006101000a81548173ffffffffffffffffffffffffffffffffffffffff021916908373ffffffffffffffffffffffffffffffffffffffff16021790555060808201518160030160146101000a81548160ff02191690831515021790555060a08201518160030160156101000a81548160ff0219169083151502179055509050507fc7874741d6d69988c1782a4eb1fdeff8733853cb23ed70504ede1763de6fbd7560015483833360008060405180878152602001806020018681526020018573ffffffffffffffffffffffffffffffffffffffff1673ffffffffffffffffffffffffffffffffffffffff1681526020018415151515815260200183151515158152602001828103825287818151815260200191508051906020019080838360005b83811015610f25578082015181840152602081019050610f0a565b50505050905090810190601f168015610f525780820380516001836020036101000a031916815260200191505b5097505050505050505060405180910390a15050565b6040518060c00160405280600081526020016060815260200160008152602001600073ffffffffffffffffffffffffffffffffffffffff1681526020016000151581526020016000151581525090565b828054600181600116156101000203166002900490600052602060002090601f016020900481019282601f10610ff957805160ff1916838001178555611027565b82800160010185558215611027579182015b8281111561102657825182559160200191906001019061100b565b5b5090506110349190611038565b5090565b61105a91905b8082111561105657600081600090555060010161103e565b5090565b9056fea265627a7a72315820bd89991a2be4dce99bfab7648434e09d999b566f168f79ad755480c44c278ffe64736f6c63430005100032",
  "source": "pragma solidity ^0.5.0;\n\ncontract Marketplace {\n    string public name;\n    uint public productCount = 0;\n    mapping(uint => Product) public products;\n\n    struct Product {\n        uint id;\n        string name;\n        uint price;\n        address payable owner;\n        bool purchased;\n        bool removed;\n    }\n\n    event ProductCreated(\n        uint id,\n        string name,\n        uint price,\n        address payable owner,\n        bool purchased,\n        bool removed\n    );\n\n    event ProductPurchased(\n        uint id,\n        string name,\n        uint price,\n        address payable owner,\n        bool purchased,\n        bool removed\n    );\n\n    event ProductRemoved(\n        uint id,\n        string name,\n        uint price,\n        address payable owner,\n        bool purchased,\n        bool removed\n    );\n\n    constructor() public {\n        name = \"Dapp University Marketplace\";\n    }\n\n    function createProduct(string memory _name, uint _price) public {\n        // Require a valid name\n        require(bytes(_name).length > 0);\n        // Require a valid price\n        require(_price > 0);\n        // Increment product count\n        productCount ++;\n        // Create the product\n        products[productCount] = Product(productCount, _name, _price, msg.sender, false, false);\n        // Trigger an event\n        emit ProductCreated(productCount, _name, _price, msg.sender, false, false);\n    }\n\n    function purchaseProduct(uint _id) public payable {\n        // Fetch the product\n        Product memory _product = products[_id];\n        // Fetch the owner\n        address payable _seller = _product.owner;\n        // Make sure the product has a valid id\n        require(_product.id > 0 && _product.id <= productCount);\n        // Require that there is enough Ether in the transaction\n        require(msg.value >= _product.price);\n        // Require that the product has not been purchased already\n        require(!_product.purchased);\n        // Require that the buyer is not the seller\n        require(_seller != msg.sender);\n        // Transfer ownership to the buyer\n        _product.owner = msg.sender;\n        // Mark as purchased\n        _product.purchased = true;\n        // Update the product\n        products[_id] = _product;\n        // Pay the seller by sending him Ether\n        address(_seller).transfer(msg.value);\n        // Trigger an event\n        emit ProductPurchased(_product.id, _product.name, _product.price, msg.sender, true, false);\n    }\n\n    function removeProduct(uint _id) public payable {\n        // Fetch the product\n        Product memory _product = products[_id];\n        // Fetch the owner\n        address payable _seller = _product.owner;\n        // Make sure the product has a valid id\n        require(_product.id > 0 && _product.id <= productCount);\n        // Require that the product has not been removed already\n        require(!_product.removed);\n        // Require that the current user is the seller\n        require(_seller == msg.sender);\n        // Mark as removed\n        _product.removed = true;\n        // Update the product\n        products[_id] = _product;\n        // Trigger an event\n        emit ProductRemoved(_product.id, _product.name, _product.price, msg.sender, false, true);\n    }\n}\n",
  "sourcePath": "/home/florent/Dev_Block/marketplace/src/contracts/Marketplace.sol",
  "compiler": {
    "name": "solc",
    "version": "0.5.16+commit.9c3226ce.Emscripten.clang"
  },
  "schemaVersion": "3.0.23",
  "updatedAt": "2021-08-27T17:34:40.956Z",
  "networkType": "ethereum",
  "devdoc": {
    "methods": {}
  },
  "userdoc": {
    "methods": {}
  }
}